{
  "contractName": "Campaign",
  "abi": [
    {
      "constant": true,
      "inputs": [
        {
          "name": "",
          "type": "address"
        }
      ],
      "name": "approvers",
      "outputs": [
        {
          "name": "",
          "type": "bool"
        }
      ],
      "payable": false,
      "stateMutability": "view",
      "type": "function"
    },
    {
      "constant": true,
      "inputs": [],
      "name": "manager",
      "outputs": [
        {
          "name": "",
          "type": "address"
        }
      ],
      "payable": false,
      "stateMutability": "view",
      "type": "function"
    },
    {
      "constant": true,
      "inputs": [
        {
          "name": "",
          "type": "uint256"
        }
      ],
      "name": "requests",
      "outputs": [
        {
          "name": "description",
          "type": "bytes32"
        },
        {
          "name": "value",
          "type": "uint256"
        },
        {
          "name": "recipient",
          "type": "address"
        },
        {
          "name": "complete",
          "type": "bool"
        },
        {
          "name": "approvalCount",
          "type": "uint256"
        }
      ],
      "payable": false,
      "stateMutability": "view",
      "type": "function"
    },
    {
      "constant": true,
      "inputs": [],
      "name": "approversCount",
      "outputs": [
        {
          "name": "",
          "type": "uint256"
        }
      ],
      "payable": false,
      "stateMutability": "view",
      "type": "function"
    },
    {
      "constant": true,
      "inputs": [],
      "name": "minimumContribution",
      "outputs": [
        {
          "name": "",
          "type": "uint256"
        }
      ],
      "payable": false,
      "stateMutability": "view",
      "type": "function"
    },
    {
      "inputs": [
        {
          "name": "minimum",
          "type": "uint256"
        },
        {
          "name": "creator",
          "type": "address"
        }
      ],
      "payable": false,
      "stateMutability": "nonpayable",
      "type": "constructor"
    },
    {
      "anonymous": false,
      "inputs": [
        {
          "indexed": false,
          "name": "description",
          "type": "bytes32"
        },
        {
          "indexed": false,
          "name": "value",
          "type": "uint256"
        },
        {
          "indexed": false,
          "name": "recipient",
          "type": "address"
        }
      ],
      "name": "RequestCreated",
      "type": "event"
    },
    {
      "anonymous": false,
      "inputs": [
        {
          "indexed": false,
          "name": "index",
          "type": "uint256"
        },
        {
          "indexed": false,
          "name": "description",
          "type": "bytes32"
        },
        {
          "indexed": false,
          "name": "approvalCount",
          "type": "uint256"
        },
        {
          "indexed": false,
          "name": "sender",
          "type": "address"
        }
      ],
      "name": "ApproveRequest",
      "type": "event"
    },
    {
      "anonymous": false,
      "inputs": [
        {
          "indexed": false,
          "name": "index",
          "type": "uint256"
        },
        {
          "indexed": false,
          "name": "description",
          "type": "bytes32"
        },
        {
          "indexed": false,
          "name": "recipient",
          "type": "address"
        },
        {
          "indexed": false,
          "name": "approvalCount",
          "type": "uint256"
        },
        {
          "indexed": false,
          "name": "value",
          "type": "uint256"
        },
        {
          "indexed": false,
          "name": "complete",
          "type": "bool"
        }
      ],
      "name": "FinalizeRequest",
      "type": "event"
    },
    {
      "anonymous": false,
      "inputs": [
        {
          "indexed": false,
          "name": "contributor",
          "type": "address"
        },
        {
          "indexed": false,
          "name": "contributionAmount",
          "type": "uint256"
        },
        {
          "indexed": false,
          "name": "campaignAmount",
          "type": "uint256"
        }
      ],
      "name": "Contribution",
      "type": "event"
    },
    {
      "constant": false,
      "inputs": [],
      "name": "contribute",
      "outputs": [],
      "payable": true,
      "stateMutability": "payable",
      "type": "function"
    },
    {
      "constant": false,
      "inputs": [
        {
          "name": "description",
          "type": "bytes32"
        },
        {
          "name": "value",
          "type": "uint256"
        },
        {
          "name": "recipient",
          "type": "address"
        }
      ],
      "name": "createRequest",
      "outputs": [],
      "payable": false,
      "stateMutability": "nonpayable",
      "type": "function"
    },
    {
      "constant": true,
      "inputs": [],
      "name": "getRequests",
      "outputs": [
        {
          "name": "descriptions",
          "type": "bytes32[]"
        },
        {
          "name": "values",
          "type": "uint256[]"
        },
        {
          "name": "recipients",
          "type": "address[]"
        },
        {
          "name": "complete",
          "type": "bool[]"
        },
        {
          "name": "approvalCount",
          "type": "uint256[]"
        }
      ],
      "payable": false,
      "stateMutability": "view",
      "type": "function"
    },
    {
      "constant": true,
      "inputs": [
        {
          "name": "index",
          "type": "uint256"
        }
      ],
      "name": "getRequestApprovers",
      "outputs": [
        {
          "name": "tApprovers",
          "type": "address[]"
        },
        {
          "name": "isApproved",
          "type": "bool[]"
        }
      ],
      "payable": false,
      "stateMutability": "view",
      "type": "function"
    },
    {
      "constant": false,
      "inputs": [
        {
          "name": "index",
          "type": "uint256"
        }
      ],
      "name": "approveRequest",
      "outputs": [],
      "payable": false,
      "stateMutability": "nonpayable",
      "type": "function"
    },
    {
      "constant": false,
      "inputs": [
        {
          "name": "index",
          "type": "uint256"
        }
      ],
      "name": "finalizeRequest",
      "outputs": [],
      "payable": false,
      "stateMutability": "nonpayable",
      "type": "function"
    },
    {
      "constant": true,
      "inputs": [],
      "name": "getSummary",
      "outputs": [
        {
          "name": "",
          "type": "uint256"
        },
        {
          "name": "",
          "type": "uint256"
        },
        {
          "name": "",
          "type": "uint256"
        },
        {
          "name": "",
          "type": "uint256"
        },
        {
          "name": "",
          "type": "address"
        }
      ],
      "payable": false,
      "stateMutability": "view",
      "type": "function"
    },
    {
      "constant": true,
      "inputs": [],
      "name": "getRequestsCount",
      "outputs": [
        {
          "name": "",
          "type": "uint256"
        }
      ],
      "payable": false,
      "stateMutability": "view",
      "type": "function"
    }
  ],
  "bytecode": "0x608060405234801561001057600080fd5b5060405160408061162a833981018060405281019080805190602001909291908051906020019092919050505080600160006101000a81548173ffffffffffffffffffffffffffffffffffffffff021916908373ffffffffffffffffffffffffffffffffffffffff160217905550816002819055505050611594806100966000396000f3006080604052600436106100c5576000357c0100000000000000000000000000000000000000000000000000000000900463ffffffff16806303441006146100ca5780630a144391146100f75780633410452a146101525780634051ddac1461017d578063479257fb146101f0578063481c6a751461024b57806381d12c58146102a257806382fde093146103375780638813ce1214610362578063937e09b1146104ee578063baf45cdf14610519578063d7bb99ba146105e3578063d7d1bbdb146105ed575b600080fd5b3480156100d657600080fd5b506100f56004803603810190808035906020019092919050505061061a565b005b34801561010357600080fd5b50610138600480360381019080803573ffffffffffffffffffffffffffffffffffffffff16906020019092919050505061083d565b604051808215151515815260200191505060405180910390f35b34801561015e57600080fd5b5061016761085d565b6040518082815260200191505060405180910390f35b34801561018957600080fd5b50610192610869565b604051808681526020018581526020018481526020018381526020018273ffffffffffffffffffffffffffffffffffffffff1673ffffffffffffffffffffffffffffffffffffffff1681526020019550505050505060405180910390f35b3480156101fc57600080fd5b50610249600480360381019080803560001916906020019092919080359060200190929190803573ffffffffffffffffffffffffffffffffffffffff1690602001909291905050506108c9565b005b34801561025757600080fd5b50610260610b05565b604051808273ffffffffffffffffffffffffffffffffffffffff1673ffffffffffffffffffffffffffffffffffffffff16815260200191505060405180910390f35b3480156102ae57600080fd5b506102cd60048036038101908080359060200190929190505050610b2b565b6040518086600019166000191681526020018581526020018473ffffffffffffffffffffffffffffffffffffffff1673ffffffffffffffffffffffffffffffffffffffff168152602001831515151581526020018281526020019550505050505060405180910390f35b34801561034357600080fd5b5061034c610b9d565b6040518082815260200191505060405180910390f35b34801561036e57600080fd5b50610377610ba3565b60405180806020018060200180602001806020018060200186810386528b818151815260200191508051906020019060200280838360005b838110156103ca5780820151818401526020810190506103af565b5050505090500186810385528a818151815260200191508051906020019060200280838360005b8381101561040c5780820151818401526020810190506103f1565b50505050905001868103845289818151815260200191508051906020019060200280838360005b8381101561044e578082015181840152602081019050610433565b50505050905001868103835288818151815260200191508051906020019060200280838360005b83811015610490578082015181840152602081019050610475565b50505050905001868103825287818151815260200191508051906020019060200280838360005b838110156104d25780820151818401526020810190506104b7565b505050509050019a505050505050505050505060405180910390f35b3480156104fa57600080fd5b50610503610f23565b6040518082815260200191505060405180910390f35b34801561052557600080fd5b5061054460048036038101908080359060200190929190505050610f29565b604051808060200180602001838103835285818151815260200191508051906020019060200280838360005b8381101561058b578082015181840152602081019050610570565b50505050905001838103825284818151815260200191508051906020019060200280838360005b838110156105cd5780820151818401526020810190506105b2565b5050505090500194505050505060405180910390f35b6105eb61110a565b005b3480156105f957600080fd5b5061061860048036038101908080359060200190929190505050611211565b005b6000600160009054906101000a900473ffffffffffffffffffffffffffffffffffffffff1673ffffffffffffffffffffffffffffffffffffffff163373ffffffffffffffffffffffffffffffffffffffff1614151561067857600080fd5b60008281548110151561068757fe5b9060005260206000209060060201905060026004548115156106a557fe5b0481600301541115156106b757600080fd5b8060020160149054906101000a900460ff161515156106d557600080fd5b8060020160009054906101000a900473ffffffffffffffffffffffffffffffffffffffff1673ffffffffffffffffffffffffffffffffffffffff166108fc82600101549081150290604051600060405180830381858888f19350505050158015610743573d6000803e3d6000fd5b5060018160020160146101000a81548160ff0219169083151502179055507f9a9a3f541498f3491f3cf453ede6ae5a990fb6252e64160c8b893225311b83068282600001548360020160009054906101000a900473ffffffffffffffffffffffffffffffffffffffff16846003015485600101548660020160149054906101000a900460ff166040518087815260200186600019166000191681526020018573ffffffffffffffffffffffffffffffffffffffff1673ffffffffffffffffffffffffffffffffffffffff16815260200184815260200183815260200182151515158152602001965050505050505060405180910390a15050565b60036020528060005260406000206000915054906101000a900460ff1681565b60008080549050905090565b60008060008060006002543073ffffffffffffffffffffffffffffffffffffffff1631600080549050600454600160009054906101000a900473ffffffffffffffffffffffffffffffffffffffff16945094509450945094509091929394565b6108d1611449565b600160009054906101000a900473ffffffffffffffffffffffffffffffffffffffff1673ffffffffffffffffffffffffffffffffffffffff163373ffffffffffffffffffffffffffffffffffffffff1614151561092d57600080fd5b83816000019060001916908160001916815250508281602001818152505081816040019073ffffffffffffffffffffffffffffffffffffffff16908173ffffffffffffffffffffffffffffffffffffffff16815250506000816060019015159081151581525050600081608001818152505060008190806001815401808255809150509060018203906000526020600020906006020160009091929091909150600082015181600001906000191690556020820151816001015560408201518160020160006101000a81548173ffffffffffffffffffffffffffffffffffffffff021916908373ffffffffffffffffffffffffffffffffffffffff16021790555060608201518160020160146101000a81548160ff0219169083151502179055506080820151816003015560a0820151816005019080519060200190610a7492919061149b565b505050507f146edb1cf019355ed32a9220da0c085f37fffdf2933b4274e8eda3aeab901ba48160000151826020015183604001516040518084600019166000191681526020018381526020018273ffffffffffffffffffffffffffffffffffffffff1673ffffffffffffffffffffffffffffffffffffffff168152602001935050505060405180910390a150505050565b600160009054906101000a900473ffffffffffffffffffffffffffffffffffffffff1681565b600081815481101515610b3a57fe5b90600052602060002090600602016000915090508060000154908060010154908060020160009054906101000a900473ffffffffffffffffffffffffffffffffffffffff16908060020160149054906101000a900460ff16908060030154905085565b60045481565b60608060608060606000610bb5611449565b600080549050604051908082528060200260200182016040528015610be95781602001602082028038833980820191505090505b509650600080549050604051908082528060200260200182016040528015610c205781602001602082028038833980820191505090505b509550600080549050604051908082528060200260200182016040528015610c575781602001602082028038833980820191505090505b509450600080549050604051908082528060200260200182016040528015610c8e5781602001602082028038833980820191505090505b509350600080549050604051908082528060200260200182016040528015610cc55781602001602082028038833980820191505090505b509250600091505b600080549050821015610f1a57600082815481101515610ce957fe5b906000526020600020906006020160c06040519081016040529081600082015460001916600019168152602001600182015481526020016002820160009054906101000a900473ffffffffffffffffffffffffffffffffffffffff1673ffffffffffffffffffffffffffffffffffffffff1673ffffffffffffffffffffffffffffffffffffffff1681526020016002820160149054906101000a900460ff161515151581526020016003820154815260200160058201805480602002602001604051908101604052809291908181526020018280548015610e1f57602002820191906000526020600020905b8160009054906101000a900473ffffffffffffffffffffffffffffffffffffffff1673ffffffffffffffffffffffffffffffffffffffff1681526020019060010190808311610dd5575b505050505081525050905080600001518783815181101515610e3d57fe5b90602001906020020190600019169081600019168152505080602001518683815181101515610e6857fe5b906020019060200201818152505080604001518583815181101515610e8957fe5b9060200190602002019073ffffffffffffffffffffffffffffffffffffffff16908173ffffffffffffffffffffffffffffffffffffffff168152505080606001518483815181101515610ed857fe5b906020019060200201901515908115158152505080608001518383815181101515610eff57fe5b90602001906020020181815250508180600101925050610ccd565b50509091929394565b60025481565b60608060008060008060008710158015610f47575060008054905087105b1515610f5257600080fd5b600087815481101515610f6157fe5b906000526020600020906006020193508360050180549050604051908082528060200260200182016040528015610fa75781602001602082028038833980820191505090505b5095508360050180549050604051908082528060200260200182016040528015610fe05781602001602082028038833980820191505090505b509450600092505b836005018054905083101561110157836005018381548110151561100857fe5b9060005260206000200160009054906101000a900473ffffffffffffffffffffffffffffffffffffffff16915081868481518110151561104457fe5b9060200190602002019073ffffffffffffffffffffffffffffffffffffffff16908173ffffffffffffffffffffffffffffffffffffffff16815250508360040160008373ffffffffffffffffffffffffffffffffffffffff1673ffffffffffffffffffffffffffffffffffffffff16815260200190815260200160002060009054906101000a900460ff1690508085848151811015156110e057fe5b90602001906020020190151590811515815250508280600101935050610fe8565b50505050915091565b600254341015151561111b57600080fd5b6001600360003373ffffffffffffffffffffffffffffffffffffffff1673ffffffffffffffffffffffffffffffffffffffff16815260200190815260200160002060006101000a81548160ff0219169083151502179055506004600081548092919060010191905055507f5f7675b09617d2c9fa4fd13058ee5877a9538f626b0308816736e83748a4504033343073ffffffffffffffffffffffffffffffffffffffff1631604051808473ffffffffffffffffffffffffffffffffffffffff1673ffffffffffffffffffffffffffffffffffffffff168152602001838152602001828152602001935050505060405180910390a1565b6000808281548110151561122157fe5b90600052602060002090600602019050600360003373ffffffffffffffffffffffffffffffffffffffff1673ffffffffffffffffffffffffffffffffffffffff16815260200190815260200160002060009054906101000a900460ff16151561128957600080fd5b8060040160003373ffffffffffffffffffffffffffffffffffffffff1673ffffffffffffffffffffffffffffffffffffffff16815260200190815260200160002060009054906101000a900460ff161515156112e457600080fd5b60018160040160003373ffffffffffffffffffffffffffffffffffffffff1673ffffffffffffffffffffffffffffffffffffffff16815260200190815260200160002060006101000a81548160ff021916908315150217905550806005013390806001815401808255809150509060018203906000526020600020016000909192909190916101000a81548173ffffffffffffffffffffffffffffffffffffffff021916908373ffffffffffffffffffffffffffffffffffffffff1602179055505080600301600081548092919060010191905055507f4b7e06ea0655c956009342a4f5d894fd44ea65e33210f28cc6426217ac21cfa68282600001548360030154336040518085815260200184600019166000191681526020018381526020018273ffffffffffffffffffffffffffffffffffffffff1673ffffffffffffffffffffffffffffffffffffffff16815260200194505050505060405180910390a15050565b60c0604051908101604052806000801916815260200160008152602001600073ffffffffffffffffffffffffffffffffffffffff16815260200160001515815260200160008152602001606081525090565b828054828255906000526020600020908101928215611514579160200282015b828111156115135782518260006101000a81548173ffffffffffffffffffffffffffffffffffffffff021916908373ffffffffffffffffffffffffffffffffffffffff160217905550916020019190600101906114bb565b5b5090506115219190611525565b5090565b61156591905b8082111561156157600081816101000a81549073ffffffffffffffffffffffffffffffffffffffff02191690555060010161152b565b5090565b905600a165627a7a7230582006d5c44b0f6bf87e0f1937546744be074bffa43b3f67a48baa5fd564b4632db90029",
  "source": "pragma solidity ^0.4.24;\n\ncontract CampaignFactory {\n    address private owner;\n    address[] public deployedCampaigns;\n    uint public campaignCount;\n\n    event CampaignCreated(uint minimumContribution, address owner, uint campaignCount);\n\n    modifier onlyOwner() {\n        require(msg.sender == owner);\n        _;\n    }\n\n    constructor() public {\n        owner = msg.sender;\n    }\n    \n    function createCampaign(uint minimum) public {\n        address newCampaign = new Campaign(minimum, msg.sender);\n        deployedCampaigns.push(newCampaign);\n        campaignCount++;\n        emit CampaignCreated(minimum, msg.sender, campaignCount);\n    }\n\n    function getDeployedCampaigns() public view returns (address[]) {\n        return deployedCampaigns;\n    }\n \n    function getDeployedCampaign(uint8 index) public view returns (address) {\n        require(index >= 0 && index < deployedCampaigns.length, \"index should be valid.\");\n        return deployedCampaigns[index];\n    }\n\n    function kill() external {\n        require(msg.sender == owner, \"Only the owner can kill this contract\");\n        selfdestruct(owner);\n    }\n}\n\ncontract Campaign {\n    struct Request {\n        bytes32 description;\n        uint value;\n        address recipient;\n        bool complete;\n        uint approvalCount;\n        mapping(address => bool) approvals;\n        address[] approvalsTable;\n    }\n\n    Request[] public requests;\n    address public manager;\n    uint public minimumContribution;\n    mapping(address => bool) public approvers;\n    uint public approversCount;\n\n    modifier restricted() {\n        require(msg.sender == manager);\n        _;\n    }\n\n    event RequestCreated(bytes32 description, uint value, address recipient);     \n    event ApproveRequest(uint index, bytes32 description, uint approvalCount, address sender);\n    event FinalizeRequest(uint index, bytes32 description, address recipient, uint approvalCount, uint value, bool complete);\n    event Contribution(address contributor, uint contributionAmount, uint campaignAmount);\n    \n    constructor(uint minimum, address creator) public {\n        manager = creator;\n        minimumContribution = minimum;\n    }\n\n    function contribute() public payable {\n        require(msg.value >= minimumContribution); \n        approvers[msg.sender] = true;\n        approversCount++; \n\n        emit Contribution(msg.sender, msg.value, address(this).balance);\n    }\n\n    function createRequest(bytes32 description, uint value, address recipient) public restricted {\n        // Request memory newRequest = Request({\n        //     description: description,\n        //     value: value,\n        //     recipient: recipient,\n        //     complete: false,\n        //     approvalCount: 0\n        // });\n\n        Request memory newRequest;\n        newRequest.description = description;\n        newRequest.value = value;\n        newRequest.recipient = recipient;\n        newRequest.complete = false;\n        newRequest.approvalCount = 0;\n        \n        requests.push(newRequest);\n\n        emit RequestCreated(newRequest.description, newRequest.value, newRequest.recipient);\n    }\n  \n    function getRequests() public view returns (\n        bytes32[] memory descriptions,\n        uint[] memory values,\n        address[] memory recipients,\n        bool[] memory complete, \n        uint[] memory approvalCount \n        ) { \n        descriptions = new bytes32[](requests.length);\n        values = new uint[](requests.length);\n        recipients = new address[](requests.length);\n        complete = new bool[](requests.length);     \n        approvalCount = new uint[](requests.length); \n        for ( uint i=0; i < requests.length; i++ ) {\n            Request memory r = requests[i]; \n            descriptions[i] = r.description;     \n            values[i] = r.value;\n            recipients[i] = r.recipient;\n            complete[i] = r.complete;\n            approvalCount[i] = r.approvalCount;            \n        }\n    }\n \n    function getRequestApprovers(uint index) public view returns ( \n        address[] memory tApprovers,\n        bool[] memory isApproved  \n        ) {  \n        require(index >= 0 && index < requests.length);\n\n            //  mapping(address => bool) approvals;\n        Request storage r = requests[index];\n\n        tApprovers = new address[](r.approvalsTable.length);\n        isApproved = new bool[](r.approvalsTable.length);   \n\n        for ( uint i=0; i < r.approvalsTable.length; i++ ) {\n            address addr = r.approvalsTable[i];\n            tApprovers[i] = addr;\n            bool approved = r.approvals[addr];\n            isApproved[i] = approved;      \n        }\n    }\n    function approveRequest(uint index) public {\n        Request storage request = requests[index];\n\n        require(approvers[msg.sender]);\n        require(!request.approvals[msg.sender]);\n\n        request.approvals[msg.sender] = true;\n        request.approvalsTable.push(msg.sender);\n        request.approvalCount++;\n\n        emit ApproveRequest(index, request.description, request.approvalCount, msg.sender);\n    }\n\n    function finalizeRequest(uint index) public restricted {\n        Request storage request = requests[index];\n\n        require(request.approvalCount > (approversCount / 2));\n        require(!request.complete);\n\n        request.recipient.transfer(request.value);\n        request.complete = true;\n\n        emit FinalizeRequest(index, request.description, request.recipient, request.approvalCount, request.value, request.complete);\n    }\n\n    function getSummary() public view returns (\n      uint, uint, uint, uint, address\n      ) {\n        return (\n          minimumContribution,\n          address(this).balance,\n          requests.length,\n          approversCount,\n          manager\n        );\n    }\n\n    function getRequestsCount() public view returns (uint) {\n        return requests.length;\n    }\n}\n",
  "sourcePath": "/Users/rene/learn/blockchain/ethereum/kickstart-trffl/contracts/Campaign.sol",
  "compiler": {
    "name": "solc",
    "version": "0.4.24+commit.e67f0147.Emscripten.clang"
  },
  "schemaVersion": "2.0.1",
  "updatedAt": "2018-11-27T16:40:37.020Z"
}